:100000000C9463000C948B000C948B000C948B006C
:100010000C948B000C948B000C948B000C94360188
:100020000C948B000C948B000C948B000C948B0024
:100030000C948B000C948B000C948B000C948B0014
:100040000C9460070C948B000C942E050C94750591
:100050000C948B000C948B000C948B000C948B00F4
:100060000C944B020C948B0000000000240027002D
:100070002A0000000000250028002B0000000000DE
:1000800023002600290004040404040404040202DA
:100090000202020203030303030301020408102007
:1000A0004080010204081020010204081020000012
:1000B0000007000201000003040600000000000029
:1000C00000006504B20611241FBECFEFD8E0DEBFEA
:1000D000CDBF11E0A0E0B1E0E0E5F4E102C00590A1
:1000E0000D92A033B107D9F713E0A0E3B1E001C04E
:1000F0001D92A631B107E1F710E0C6ECD0E004C0D4
:100100002297FE010E94220AC23CD107C9F70E9431
:1001100051070C94260A0C94000080913301813021
:1001200021F580913001813019F08230E1F413C063
:100130008BE692E060E071E00E944E07109234017D
:10014000809131019091320190930F0180930E01C3
:100150000E94150208C08BE692E069E071E00E94FF
:100160004E070E940D021092330140910E015091F2
:100170000F01E5E3F1E020E030E0808190E0841BB6
:10018000950B97FF03C0909581959F4F280F391FBE
:10019000319681E0E939F80781F7283C310518F4F8
:1001A00081E08093340108950F931F93F8948BE6B8
:1001B00092E040E855E260E070E00E94A5050BE5A2
:1001C00012E0C80162E070E00E94FC04C80168E22D
:1001D00071E00E946004C8016AEF70E00E945B0455
:1001E0000E9422050E94FF040E948E0178941F91B4
:1001F0000F9108950F931F9304C08BE592E00E9426
:1002000003048BE592E00E94FA030497B4F78BE5B0
:1002100092E00E940304809330018BE592E00E94FB
:1002200003048C0190933201809331018BE592E0BD
:100230000E940304382F20E0202B312B3093320111
:100240002093310181E0809333011F910F91089534
:1002500080913401882321F48BE592E060E003C0B3
:100260008BE592E061E00E94AD0408951F920F9229
:100270000FB60F9211242F933F934F935F936F9379
:100280007F938F939F93AF93BF93EF93FF932091AF
:10029000990130919A012F5F3F4F30939A0120933B
:1002A00099018091670290916802A0916902B091D2
:1002B0006A020196A11DB11D8093670290936802A6
:1002C000A0936902B0936A02C90163E070E00E94E2
:1002D000EA09892B91F42436310520F010929A0115
:1002E000109299010E940702E0919901F0919A0100
:1002F000EB5CFE4F80919E018083FF91EF91BF9157
:10030000AF919F918F917F916F915F914F913F91AD
:100310002F910F900FBE0F901F90189580E880933B
:10032000B00086E08093B1008EE38093B30008951F
:100330000E94280590939F0180939E010E942B05A7
:1003400060919B0170919C0120919E0130919F01D1
:10035000621B730B882777FD8095982F0E94D30826
:100360002DEC3CEC4CE45DE30E9487092091A00158
:100370003091A1014091A2015091A3010E9438083F
:100380006093A0017093A1018093A2019093A301B7
:1003900020E030E046E953E40E948309181664F433
:1003A00080E090E0A6E9B3E48093A0019093A101DE
:1003B000A093A201B093A3016091A0017091A1014B
:1003C0008091A2019091A30120E030E048EC52EC32
:1003D0000E949C08882364F480E090E0A8ECB2ECD2
:1003E0008093A0019093A101A093A201B093A301D7
:1003F0006091A0017091A1018091A2019091A3014F
:100400000E94A008DC01CB010E941505089581E03F
:1004100080939D010E949801089580E00E941C0530
:10042000109270000E942B05089590939C01809378
:100430009B0181E00E941C0582E0809370000E9475
:100440002B050895880F8093BA000895482F6132D4
:1004500010F081E008958091A401843011F082E0D1
:1004600008956093EF01AEECB1E0842F9C01F90197
:1004700002C081918D938E2F841B8617D0F380E06C
:1004800008959093AB018093AA0108959093A901D8
:100490008093A80108951F920F920FB60F92112416
:1004A0002F933F934F935F936F937F938F939F937C
:1004B000AF93BF93EF93FF938091B90090E0887F53
:1004C00090708036910509F4F2C081369105CCF523
:1004D0008832910509F47BC089329105B4F48031EA
:1004E000910509F46FC0813191053CF4009709F43E
:1004F00047C1089709F04FC165C08831910509F4DB
:1005000066C0809709F047C182C08034910509F424
:10051000A4C08134910544F48033910509F482C06C
:10052000C89709F038C189C08035910509F489C0A0
:100530008835910509F496C08834910509F02BC1DE
:10054000AEC08839910509F413C189399105ECF4DD
:100550008837910509F4ABC0893791054CF488368A
:10056000910509F4A4C08037910509F014C19FC01A
:100570008838910509F4FCC08039910509F49DC0C3
:100580008038910509F007C198C0803B910509F4B6
:10059000C6C0813B91054CF4803A910509F49FC097
:1005A000883A910509F0F7C0BAC0803C910509F47A
:1005B000E3C0883C910509F4DFC0883B910509F050
:1005C000EAC0C2C08091A5018093BB00CFC09091CA
:1005D000CC018091CD01981768F49091CC01E92F5E
:1005E000F0E0E455FE4F80818093BB009F5F9093C5
:1005F000CC01BCC08091A601882309F44BC085EDD5
:100600008093BC008091BC0084FDFCCFC2C080E21E
:100610008093110285ED8093BC008091BC0084FD25
:10062000FCCFB7C080E38093110285ED8093BC00BE
:100630008091BC0084FDFCCFACC088E380931102A4
:100640009BC08091CC019091BB00E82FF0E0E45575
:10065000FE4F90838F5F8093CC019091CC0180916D
:10066000CD0182C08091CC019091BB00E82FF0E0D9
:10067000E455FE4F90838F5F8093CC018091A6015B
:10068000882341F085ED8093BC008091BC0084FDFF
:10069000FCCF7FC081E08093A70184EA6EC085ED26
:1006A0008093BC008091BC0084FDFCCF72C083E0CD
:1006B0008093A4011092100259C0809110028032E0
:1006C00008F056C0809110029091BB00E82FF0E036
:1006D000E051FE4F90838F5F8093100247C080915E
:1006E0001002803230F4E0911002F0E0E051FE4F51
:1006F000108285ED8093BC008091BC0084FDFCCF0E
:100700001092A40160911002E091AA01F091AB0156
:1007100080EF91E070E00995109210022DC084E006
:100720008093A4011092EE011092EF01E091A801D4
:10073000F091A90109958091EF01882329F481E0C6
:100740008093EF011092CE019091EE01E92FF0E03D
:10075000E253FE4F80818093BB009F5F9093EE0138
:100760009091EE018091EF01981710F485EC01C093
:1007700085E88093BC000FC085EC8093BC0009C065
:100780001092110285ED8093BC008091BC0084FD25
:10079000FCCF1092A401FF91EF91BF91AF919F9177
:1007A0008F917F916F915F914F913F912F910F901A
:1007B0000FBE0F901F9018951092A40181E08093B6
:1007C000A6011092A70182E161E00E94E30783E1A4
:1007D00061E00E94E307E9EBF0E080818E7F808397
:1007E00080818D7F808388E48093B80085E4809346
:1007F000BC0008952091330230E080913202281B22
:100800003109C9010895409132028091330248179D
:1008100018F02FEF3FEF0AC0E42FF0E0EE5EFD4F3F
:100820008081282F30E04F5F40933202C901089544
:10083000E091320280913302E81718F0EFEFFFEFFA
:1008400006C0F0E0EE5EFD4F8081E82FF0E0CF01C2
:1008500008950895AC012091590230915A02211552
:100860003105E1F090913202809133029817B0F097
:1008700090E008C0FA01EA0FFB1F8081AE5EBD4F19
:100880008C939F5FA92FB0E0A617B7079CF3109237
:10089000320260933302CB01F90109950895E0918A
:1008A0005702F0915802309729F01092540210929A
:1008B00055020995089570935A026093590208955C
:1008C0007093580260935702089510925E0210923E
:1008D0005D0288EE93E0A0E0B0E080935F02909329
:1008E0006002A0936102B093620284E191E0909370
:1008F0005C0280935B020895CF92DF92EF92FF92A9
:100900000F931F93CF93DF937C016B018A0180913A
:1009100056028823A1F0C0E0D0E00DC0D701ED91D0
:10092000FC91D601AC0FBD1F0190F081E02DC701F5
:100930006C9109952196C017D10780F304C0CB01B3
:10094000642F0E942602C801DF91CF911F910F9161
:10095000FF90EF90DF90CF900895DF93CF930F92A9
:10096000CDB7DEB7FC016983809156028823C9F0B8
:1009700080915502803238F081E090E09383828349
:1009800020E030E015C080915402E82FF0E0EC5CEC
:10099000FD4F998190838F5F80935402809355021D
:1009A00005C0CE01019661E00E94260221E030E000
:1009B000C9010F90CF91DF910895109232021092E9
:1009C000330210925402109255020E94DC030895E3
:1009D0000F931F938C01862F0E9422028FE494E0D4
:1009E0000E9446028AE294E00E944102C8010E94ED
:1009F000DD041F910F9108950E94E8040895209A44
:100A0000229A289883E68093800089E18093810070
:100A10008FE193E090938900809388008FE891E0C4
:100A200090938B0080938A00089581579E4F9093F6
:100A30008B0080938A000895813011F4289A0895DC
:100A4000289808955C9885B5876085BD16BC089583
:100A500086B590E0089516BC089508951F920F92F0
:100A60000FB60F9211242F933F934F938F939F9321
:100A7000EF93FF938091C00082FD19C04091C600A2
:100A800080918902282F30E02F5F3F4F2F73307005
:100A900080918A0290E02817390759F0E091890285
:100AA000F0E0E559FD4F42A32093890202C08091F6
:100AB000C600FF91EF919F918F914F913F912F91A0
:100AC0000F900FBE0F901F90189580918902209172
:100AD0008A0290E0805C9F4F821B91098F73907017
:100AE000892B11F00E942D0508951F920F920FB6C9
:100AF0000F9211242F938F939F93EF93FF939091D5
:100B00008B0280918C02981731F48091C1008F7D07
:100B10008093C10010C0E0918C02F0E0E353FD4FE0
:100B2000208180918C0290E001968F739070809369
:100B30008C022093C600FF91EF919F918F912F918E
:100B40000F900FBE0F901F901895AF92BF92DF923B
:100B5000EF92FF920F931F93CF93DF93EC017A01F3
:100B60008B01DD24403081EE580780E0680780E08B
:100B7000780711F0DD24D39491E0A92EB12CE889F7
:100B8000F989DD2069F0C5010C8C02C0880F991F1E
:100B90000A94E2F7808360E079E08DE390E005C09D
:100BA000108260E874E88EE190E0A80197010E944D
:100BB000FE092150304040405040569547953795AA
:100BC000279580E12030380720F0DD2011F0DD246A
:100BD000D6CFEC85FD853083EE85FF8520831D8E85
:100BE000EA89FB89408121E030E0C901088C02C01C
:100BF000880F991F0A94E2F7482B4083EA89FB8902
:100C00004081C901098C02C0880F991F0A94E2F73C
:100C1000482B4083EA89FB894081C9010A8C02C0C4
:100C2000880F991F0A94E2F7482B4083EA89FB89D1
:100C300080810B8C02C0220F331F0A94E2F72095AB
:100C400028232083DF91CF911F910F91FF90EF9088
:100C5000DF90BF90AF900895FC01268D878D30E026
:100C6000205C3F4F281B31092F733070C901089554
:100C7000FC01968D878D981719F42FEF3FEF06C072
:100C8000878DE80FF11D82A1282F30E0C90108955A
:100C9000DC015E969C915E975F968C915F979817AA
:100CA00019F42FEF3FEF10C05F968C915F97FD0115
:100CB000E80FF11D92A15F968C915F978F5F8F7304
:100CC0005F968C93292F30E0C9010895DC015D9671
:100CD0008C915D97882339F05096ED91FC91519756
:100CE000808186FFF9CF5D961C920895DC01909675
:100CF0008C919097282F30E02F5F3F4F2F733070EB
:100D000091968C91919790E028173907C9F39096A6
:100D10008C919097FD01E80FF11DEE59FF4F608314
:100D200090962C9390975296ED91FC915397208139
:100D300081E090E05B960C905B9702C0880F991F52
:100D40000A94E2F7282B208381E05D968C935D97CF
:100D50005096ED91FC91519780818064808381E071
:100D600090E0089510926E0210926D0288EE93E06A
:100D7000A0E0B0E080936F0290937002A0937102A4
:100D8000B093720284E291E090936C0280936B02C4
:100D900010928C0280918C0280938B0210928A02B6
:100DA00080918A028093890285EC90E0909378028A
:100DB0008093770284EC90E090937A02809379029A
:100DC00080EC90E090937C0280937B0281EC90E039
:100DD00090937E0280937D0282EC90E0909380025B
:100DE00080937F0286EC90E0909382028093810250
:100DF00084E08093830283E08093840287E0809381
:100E0000850285E08093860281E0809387020895C1
:100E1000CF92DF92EF92FF920F931F93CF93DF93C6
:100E20007C016B018A01C0E0D0E00FC0D6016D915A
:100E30006D01D701ED91FC910190F081E02DC7018A
:100E40000995C80FD91F015010400115110571F700
:100E5000CE01DF91CF911F910F91FF90EF90DF9026
:100E6000CF900895CF93DF93EC016115710519F4CC
:100E700020E030E00FC0DB010D900020E9F7119772
:100E8000A61BB70BE881F9810280F381E02DAD014B
:100E900009959C01C901DF91CF9108950E94320705
:100EA0000895CF93DF930E94A8070E94D400C5E65F
:100EB000D5E00E948D002097E1F30E946505F9CFEF
:100EC0001F920F920FB60F9211242F933F938F937F
:100ED0009F93AF93BF938091110390911203A091C0
:100EE0001303B0911403309115030196A11DB11D98
:100EF000232F2D5F2D3720F02D570196A11DB11DF9
:100F0000209315038093110390931203A09313036E
:100F1000B093140380910D0390910E03A0910F03E1
:100F2000B09110030196A11DB11D80930D03909304
:100F30000E03A0930F03B0931003BF91AF919F9145
:100F40008F913F912F910F900FBE0F901F9018958A
:100F5000789484B5826084BD84B5816084BD85B594
:100F6000826085BD85B5816085BDEEE6F0E080815B
:100F700081608083E1E8F0E010828081826080837C
:100F8000808181608083E0E8F0E0808181608083FF
:100F9000E1EBF0E0808184608083E0EBF0E0808131
:100FA00081608083EAE7F0E08081846080838081D3
:100FB000826080838081816080838081806880837B
:100FC0001092C1000895482F50E0CA0182559F4FEA
:100FD000FC012491CA0186569F4FFC0194914A5707
:100FE0005F4FFA013491332309F440C0222351F1B9
:100FF000233071F0243028F42130A1F0223011F593
:1010000014C02630B1F02730C1F02430D9F404C028
:10101000809180008F7703C0809180008F7D8093C6
:10102000800010C084B58F7702C084B58F7D84BDE9
:1010300009C08091B0008F7703C08091B0008F7D90
:101040008093B000E32FF0E0EE0FFF1FEE58FF4F4C
:10105000A591B4912FB7F894662321F48C919095C3
:10106000892302C08C91892B8C932FBF08955058EF
:10107000BB27AA270ED00DC1FED030F003D120F03F
:1010800031F49F3F11F41EF4F3C00EF4E095E7FB3A
:10109000E9C0E92F0FD180F3BA17620773078407FD
:1010A000950718F071F49EF527C10EF4E0950B2E0C
:1010B000BA2FA02D0B01B90190010C01CA01A001AA
:1010C0001124FF27591B99F0593F50F4503E68F105
:1010D0001A16F040A22F232F342F4427585FF3CF46
:1010E000469537952795A795F0405395C9F77EF417
:1010F0001F16BA0B620B730B840BBAF09150A1F060
:10110000FF0FBB1F661F771F881FC2F70EC0BA0FE5
:10111000621F731F841F48F4879577956795B7956D
:10112000F7959E3F08F0B3CF9395880F08F0992765
:10113000EE0F97958795089571D008F481E0089592
:1011400004D06894B111D9C00895BCD088F09F57DD
:1011500090F0B92F9927B751A0F0D1F0660F771F03
:10116000881F991F1AF0BA95C9F712C0B13081F0E3
:10117000C3D0B1E00895C0C0672F782F8827B85F2B
:1011800039F0B93FCCF3869577956795B395D9F744
:101190003EF490958095709561957F4F8F4F9F4F4E
:1011A0000895E89409C097FB3EF49095809570955A
:1011B00061957F4F8F4F9F4F9923A9F0F92F96E9A3
:1011C000BB279395F695879577956795B795F11118
:1011D000F8CFFAF4BB0F11F460FF1BC06F5F7F4FB5
:1011E0008F4F9F4F16C0882311F096E911C07723C7
:1011F00021F09EE8872F762F05C0662371F096E8D0
:10120000862F70E060E02AF09A95660F771F881F9E
:10121000DAF7880F9695879597F90895990F000842
:10122000550FAA0BE0E8FEEF16161706E807F907B8
:10123000C0F012161306E407F50798F0621B730B53
:10124000840B950B39F40A2661F0232B242B252BD4
:1012500021F408950A2609F4A140A6958FEF811D77
:10126000811D089597F99F6780E870E060E0089518
:101270009FEF80EC089500240A94161617061806AE
:101280000906089500240A9412161306140605068A
:101290000895092E0394000C11F4882352F0BB0F1B
:1012A00040F4BF2B11F460FF04C06F5F7F4F8F4F7E
:1012B0009F4F089557FD9058440F551F59F05F3FB9
:1012C00071F04795880F97FB991F61F09F3F79F068
:1012D00087950895121613061406551FF2CF4695EA
:1012E000F1DF08C0161617061806991FF1CF86956C
:1012F0007105610508940895E894BB276627772750
:10130000CB0197F908958ADF08F48FEF08950BD089
:10131000C0CFB1DF28F0B6DF18F0952309F0A2CFD7
:10132000A7CF1124EACFC6DFA0F3959FD1F3950F85
:1013300050E0551F629FF001729FBB27F00DB11D59
:10134000639FAA27F00DB11DAA1F649F6627B00DE9
:10135000A11D661F829F2227B00DA11D621F739FD2
:10136000B00DA11D621F839FA00D611D221F749FE0
:101370003327A00D611D231F849F600D211D822F27
:10138000762F6A2F11249F5750408AF0E1F088236E
:101390004AF0EE0FFF1FBB1F661F771F881F91507B
:1013A0005040A9F79E3F510570F05CCFA6CF5F3F3C
:1013B000ECF3983EDCF3869577956795B795F795AE
:1013C000E7959F5FC1F7FE2B880F911D9695879536
:1013D00097F90895AA1BBB1B51E107C0AA1FBB1FA9
:1013E000A617B70710F0A61BB70B881F991F5A95B1
:1013F000A9F780959095BC01CD010895A1E21A2E20
:10140000AA1BBB1BFD010DC0AA1FBB1FEE1FFF1FA8
:10141000A217B307E407F50720F0A21BB30BE40BF8
:10142000F50B661F771F881F991F1A9469F760953F
:101430007095809590959B01AC01BD01CF010895F9
:10144000EE0FFF1F0590F491E02D0994F894FFCF63
:101450005350494E4E494E470053544F500096004A
:1014600000000000AD047C04FA03030418042904FE
:1014700000000000760608072C06480638066606B7
:00000001FF
